{"abi":[{"type":"constructor","inputs":[{"name":"_token","type":"address","internalType":"contract IERC20"},{"name":"_blockNo","type":"uint256","internalType":"uint256"}],"stateMutability":"nonpayable"},{"type":"function","name":"balance","inputs":[{"name":"_owner","type":"address","internalType":"address"}],"outputs":[{"name":"","type":"tuple","internalType":"struct Proof","components":[{"name":"seal","type":"tuple","internalType":"struct Seal","components":[{"name":"verifierSelector","type":"bytes4","internalType":"bytes4"},{"name":"seal","type":"bytes32[8]","internalType":"bytes32[8]"},{"name":"mode","type":"uint8","internalType":"enum ProofMode"}]},{"name":"callGuestId","type":"bytes32","internalType":"bytes32"},{"name":"length","type":"uint256","internalType":"uint256"},{"name":"callAssumptions","type":"tuple","internalType":"struct CallAssumptions","components":[{"name":"proverContractAddress","type":"address","internalType":"address"},{"name":"functionSelector","type":"bytes4","internalType":"bytes4"},{"name":"settleBlockNumber","type":"uint256","internalType":"uint256"},{"name":"settleBlockHash","type":"bytes32","internalType":"bytes32"}]}]},{"name":"","type":"address","internalType":"address"},{"name":"","type":"uint256","internalType":"uint256"}],"stateMutability":"nonpayable"},{"type":"function","name":"proof","inputs":[],"outputs":[{"name":"","type":"tuple","internalType":"struct Proof","components":[{"name":"seal","type":"tuple","internalType":"struct Seal","components":[{"name":"verifierSelector","type":"bytes4","internalType":"bytes4"},{"name":"seal","type":"bytes32[8]","internalType":"bytes32[8]"},{"name":"mode","type":"uint8","internalType":"enum ProofMode"}]},{"name":"callGuestId","type":"bytes32","internalType":"bytes32"},{"name":"length","type":"uint256","internalType":"uint256"},{"name":"callAssumptions","type":"tuple","internalType":"struct CallAssumptions","components":[{"name":"proverContractAddress","type":"address","internalType":"address"},{"name":"functionSelector","type":"bytes4","internalType":"bytes4"},{"name":"settleBlockNumber","type":"uint256","internalType":"uint256"},{"name":"settleBlockHash","type":"bytes32","internalType":"bytes32"}]}]}],"stateMutability":"pure"},{"type":"function","name":"setBlock","inputs":[{"name":"blockNo","type":"uint256","internalType":"uint256"}],"outputs":[],"stateMutability":"nonpayable"},{"type":"function","name":"setChain","inputs":[{"name":"chainId","type":"uint256","internalType":"uint256"},{"name":"blockNo","type":"uint256","internalType":"uint256"}],"outputs":[],"stateMutability":"nonpayable"}],"bytecode":{"object":"0x60c0604052348015600f57600080fd5b506040516105c13803806105c1833981016040819052602c916041565b6001600160a01b0390911660805260a0526079565b60008060408385031215605357600080fd5b82516001600160a01b0381168114606957600080fd5b6020939093015192949293505050565b60805160a05161052361009e60003960006101430152600061018901526105236000f3fe608060405234801561001057600080fd5b506004361061004c5760003560e01c806387cea3ae14610051578063e3d670d714610066578063faf924cf14610091578063ffbc5638146100a6575b600080fd5b61006461005f36600461034a565b6100b9565b005b610079610074366004610363565b610133565b60405161008893929190610450565b60405180910390f35b610099610209565b604051610088919061047b565b6100646100b4366004610490565b61021e565b6040516343e751d760e11b8152600481018290527376dc9aa45aa006a0f63942d8f9f21bd4537972a3906387cea3ae906024016020604051808303816000875af115801561010b573d6000803e3d6000fd5b505050506040513d601f19601f8201168201806040525081019061012f91906104b2565b5050565b61013b6102b8565b6000806101677f00000000000000000000000000000000000000000000000000000000000000006100b9565b6040516370a0823160e01b81526001600160a01b0385811660048301526000917f0000000000000000000000000000000000000000000000000000000000000000909116906370a0823190602401602060405180830381865afa1580156101d2573d6000803e3d6000fd5b505050506040513d601f19601f820116820180604052508101906101f691906104d4565b9050610200610209565b95909350915050565b6102116102b8565b6102196102a3565b905090565b60405160016208753960e31b0319815260048101839052602481018290527376dc9aa45aa006a0f63942d8f9f21bd4537972a39063ffbc5638906044016020604051808303816000875af115801561027a573d6000803e3d6000fd5b505050506040513d601f19601f8201168201806040525081019061029e91906104b2565b505050565b6102ab6102b8565b6102b36102b8565b919050565b60405180608001604052806102cb610304565b81526000602080830182905260408084018390528051608081018252838152918201839052810182905260608181019290925291015290565b6040805160608101909152600081526020810161031f61032b565b81526020016000905290565b6040518061010001604052806008906020820280368337509192915050565b60006020828403121561035c57600080fd5b5035919050565b60006020828403121561037557600080fd5b81356001600160a01b038116811461038c57600080fd5b9392505050565b805180516001600160e01b031916835260208082015190840160005b60088110156103ce5782518252602092830192909101906001016103af565b50505060400151600281106103f357634e487b7160e01b600052602160045260246000fd5b61012083015260208181015161014084015260408083015161016085015260609283015180516001600160a01b0316610180860152918201516001600160e01b0319166101a08501528101516101c084015201516101e090910152565b610240810161045f8286610393565b6001600160a01b03939093166102008201526102200152919050565b610200810161048a8284610393565b92915050565b600080604083850312156104a357600080fd5b50508035926020909101359150565b6000602082840312156104c457600080fd5b8151801515811461038c57600080fd5b6000602082840312156104e657600080fd5b505191905056fea26469706673582212209128828d1dca7acda7999f712b87558c5c4c2c067ec1b73df15ecc964612aa4b64736f6c634300081a0033","linkReferences":{}},"methodIdentifiers":{"balance(address)":"e3d670d7","proof()":"faf924cf","setBlock(uint256)":"87cea3ae","setChain(uint256,uint256)":"ffbc5638"},"id":68}