{"abi":[{"type":"function","name":"RISC0_CALL_GUEST_ID","inputs":[],"outputs":[{"name":"","type":"bytes32","internalType":"bytes32"}],"stateMutability":"view"}],"bytecode":{"object":"0x60a66037600b82828239805160001a607314602a57634e487b7160e01b600052600060045260246000fd5b30600052607381538281f3fe730000000000000000000000000000000000000000301460806040526004361060335760003560e01c8063d7b00be9146038575b600080fd5b605e7fc0f59f76de44b1700c2de89e0eeffbbad523e049b6beef55441f371811f6276781565b60405190815260200160405180910390f3fea264697066735822122003271a89dd690432cf3b3eaa1866c2535f07c7f6875e98ed5ce55545bbc7105664736f6c634300081a0033","linkReferences":{}},"methodIdentifiers":{"RISC0_CALL_GUEST_ID()":"d7b00be9"},"id":49}