{"abi":[{"type":"function","name":"compareStrings","inputs":[{"name":"a","type":"string","internalType":"string"},{"name":"b","type":"string","internalType":"string"}],"outputs":[{"name":"","type":"bool","internalType":"bool"}],"stateMutability":"pure"},{"type":"function","name":"main","inputs":[{"name":"unverifiedEmail","type":"tuple","internalType":"struct UnverifiedEmail","components":[{"name":"email","type":"string","internalType":"string"},{"name":"dnsRecords","type":"string[]","internalType":"string[]"}]}],"outputs":[{"name":"","type":"tuple","internalType":"struct Proof","components":[{"name":"seal","type":"tuple","internalType":"struct Seal","components":[{"name":"verifierSelector","type":"bytes4","internalType":"bytes4"},{"name":"seal","type":"bytes32[8]","internalType":"bytes32[8]"},{"name":"mode","type":"uint8","internalType":"enum ProofMode"}]},{"name":"callGuestId","type":"bytes32","internalType":"bytes32"},{"name":"length","type":"uint256","internalType":"uint256"},{"name":"callAssumptions","type":"tuple","internalType":"struct CallAssumptions","components":[{"name":"proverContractAddress","type":"address","internalType":"address"},{"name":"functionSelector","type":"bytes4","internalType":"bytes4"},{"name":"settleBlockNumber","type":"uint256","internalType":"uint256"},{"name":"settleBlockHash","type":"bytes32","internalType":"bytes32"}]}]},{"name":"","type":"string","internalType":"string"}],"stateMutability":"view"},{"type":"function","name":"proof","inputs":[],"outputs":[{"name":"","type":"tuple","internalType":"struct Proof","components":[{"name":"seal","type":"tuple","internalType":"struct Seal","components":[{"name":"verifierSelector","type":"bytes4","internalType":"bytes4"},{"name":"seal","type":"bytes32[8]","internalType":"bytes32[8]"},{"name":"mode","type":"uint8","internalType":"enum ProofMode"}]},{"name":"callGuestId","type":"bytes32","internalType":"bytes32"},{"name":"length","type":"uint256","internalType":"uint256"},{"name":"callAssumptions","type":"tuple","internalType":"struct CallAssumptions","components":[{"name":"proverContractAddress","type":"address","internalType":"address"},{"name":"functionSelector","type":"bytes4","internalType":"bytes4"},{"name":"settleBlockNumber","type":"uint256","internalType":"uint256"},{"name":"settleBlockHash","type":"bytes32","internalType":"bytes32"}]}]}],"stateMutability":"pure"},{"type":"function","name":"setBlock","inputs":[{"name":"blockNo","type":"uint256","internalType":"uint256"}],"outputs":[],"stateMutability":"nonpayable"},{"type":"function","name":"setChain","inputs":[{"name":"chainId","type":"uint256","internalType":"uint256"},{"name":"blockNo","type":"uint256","internalType":"uint256"}],"outputs":[],"stateMutability":"nonpayable"},{"type":"error","name":"FailedInnerCall","inputs":[]}],"bytecode":{"object":"0x6080604052348015600f57600080fd5b50610b9a8061001f6000396000f3fe608060405234801561001057600080fd5b50600436106100575760003560e01c806387cea3ae1461005c578063b224ae6914610071578063bed34bba1461009b578063faf924cf146100be578063ffbc5638146100d3575b600080fd5b61006f61006a366004610531565b6100e6565b005b61008461007f36600461054a565b610160565b604051610092929190610698565b60405180910390f35b6100ae6100a93660046107d0565b61027d565b6040519015158152602001610092565b6100c66102d7565b6040516100929190610837565b61006f6100e1366004610846565b6102ec565b6040516343e751d760e11b8152600481018290527376dc9aa45aa006a0f63942d8f9f21bd4537972a3906387cea3ae906024016020604051808303816000875af1158015610138573d6000803e3d6000fd5b505050506040513d601f19601f8201168201806040525081019061015c9190610868565b5050565b61016861049f565b6060600061017d6101788561088a565b610371565b604080518082018252601681527561726d616e6974796f75727340676d61696c2e636f6d60501b60208083019190915282518084019093526006835265141c9a5d925960d21b908301528251929350916101d7908361027d565b6102195760405162461bcd60e51b815260206004820152600e60248201526d46616b6520656d61696c2021212160901b60448201526064015b60405180910390fd5b61022783604001518261027d565b6102645760405162461bcd60e51b815260206004820152600e60248201526d46616b6520656d61696c2021212160901b6044820152606401610210565b61026c6102d7565b836060015194509450505050915091565b600081604051602001610290919061098e565b60405160208183030381529060405280519060200120836040516020016102b7919061098e565b604051602081830303815290604052805190602001201490505b92915050565b6102df61049f565b6102e7610445565b905090565b60405160016208753960e31b0319815260048101839052602481018290527376dc9aa45aa006a0f63942d8f9f21bd4537972a39063ffbc5638906044016020604051808303816000875af1158015610348573d6000803e3d6000fd5b505050506040513d601f19601f8201168201806040525081019061036c9190610868565b505050565b61039c6040518060800160405280606081526020016060815260200160608152602001606081525090565b6000806101016001600160a01b0316846040516020016103bc91906109aa565b60408051601f19818403018152908290526103d69161098e565b600060405180830381855afa9150503d8060008114610411576040519150601f19603f3d011682016040523d82523d6000602084013e610416565b606091505b5091509150610425828261045a565b5060008180602001905181019061043c9190610a74565b95945050505050565b61044d61049f565b61045561049f565b919050565b60608261046f5761046a82610476565b6102d1565b50806102d1565b8051156104865780518082602001fd5b604051630a12f52160e11b815260040160405180910390fd5b60405180608001604052806104b26104eb565b81526000602080830182905260408084018390528051608081018252838152918201839052810182905260608181019290925291015290565b60408051606081019091526000815260208101610506610512565b81526020016000905290565b6040518061010001604052806008906020820280368337509192915050565b60006020828403121561054357600080fd5b5035919050565b60006020828403121561055c57600080fd5b81356001600160401b0381111561057257600080fd5b82016040818503121561058457600080fd5b9392505050565b805180516001600160e01b031916835260208082015190840160005b60088110156105c65782518252602092830192909101906001016105a7565b50505060400151600281106105eb57634e487b7160e01b600052602160045260246000fd5b61012083015260208181015161014084015260408083015161016085015260609283015180516001600160a01b0316610180860152918201516001600160e01b0319166101a08501528101516101c084015201516101e090910152565b60005b8381101561066357818101518382015260200161064b565b50506000910152565b60008151808452610684816020860160208601610648565b601f01601f19169290920160200192915050565b6106a2818461058b565b61022061020082015260006106bb61022083018461066c565b949350505050565b634e487b7160e01b600052604160045260246000fd5b604080519081016001600160401b03811182821017156106fb576106fb6106c3565b60405290565b604051608081016001600160401b03811182821017156106fb576106fb6106c3565b604051601f8201601f191681016001600160401b038111828210171561074b5761074b6106c3565b604052919050565b60006001600160401b0382111561076c5761076c6106c3565b50601f01601f191660200190565b600082601f83011261078b57600080fd5b813561079e61079982610753565b610723565b8181528460208386010111156107b357600080fd5b816020850160208301376000918101602001919091529392505050565b600080604083850312156107e357600080fd5b82356001600160401b038111156107f957600080fd5b6108058582860161077a565b92505060208301356001600160401b0381111561082157600080fd5b61082d8582860161077a565b9150509250929050565b61020081016102d1828461058b565b6000806040838503121561085957600080fd5b50508035926020909101359150565b60006020828403121561087a57600080fd5b8151801515811461058457600080fd5b60006040823603121561089c57600080fd5b6108a46106d9565b82356001600160401b038111156108ba57600080fd5b6108c63682860161077a565b82525060208301356001600160401b038111156108e257600080fd5b830136601f8201126108f357600080fd5b80356001600160401b0381111561090c5761090c6106c3565b8060051b61091c60208201610723565b9182526020818401810192908101903684111561093857600080fd5b6020850192505b8383101561097e5782356001600160401b0381111561095d57600080fd5b61096c3660208389010161077a565b8352506020928301929091019061093f565b6020860152509295945050505050565b600082516109a0818460208701610648565b9190910192915050565b6020815260008251604060208401526109c6606084018261066c565b602085810151858303601f19016040870152805180845292935081019181840191600582901b85010160005b82811015610a2357601f19868303018452610a0e82865161066c565b602095860195949094019391506001016109f2565b50979650505050505050565b600082601f830112610a4057600080fd5b8151610a4e61079982610753565b818152846020838601011115610a6357600080fd5b6106bb826020830160208701610648565b600060208284031215610a8657600080fd5b81516001600160401b03811115610a9c57600080fd5b820160808185031215610aae57600080fd5b610ab6610701565b81516001600160401b03811115610acc57600080fd5b610ad886828501610a2f565b82525060208201516001600160401b03811115610af457600080fd5b610b0086828501610a2f565b60208301525060408201516001600160401b03811115610b1f57600080fd5b610b2b86828501610a2f565b60408301525060608201516001600160401b03811115610b4a57600080fd5b610b5686828501610a2f565b60608301525094935050505056fea264697066735822122003a22d9623a034400aa9a042bc9c34314da7fd8209f864c2ae4f9ac80be4d50764736f6c634300081a0033","linkReferences":{}},"methodIdentifiers":{"compareStrings(string,string)":"bed34bba","main((string,string[]))":"b224ae69","proof()":"faf924cf","setBlock(uint256)":"87cea3ae","setChain(uint256,uint256)":"ffbc5638"},"id":11}